:400000000010002011000000F50C0000F50C000010B500F091FEC04670B5164C23688022D202134323600F2001F0FCF92268124B13402360114A124B1A601022114B1A60C6
:400040001032114B1A6080221206104B1A60002525600F4A0F4B1A600F4A104B1A601049092001F091F9092001F078F90D4B1D6070BDC04600010B40FFFFFBFF060000807A
:4000800004010B40080202403002024008010B400A000080000002400F00008040000240351600000C020B4010B572B60122364B1A7000240FE035486200131959000B00BE
:4000C000411889881A5AC31858880004104300F00BFE0134E4B2012CEDD92C490C312C48643000F0E7FD802252002A4B1A80FF3A294B1A70C0229202284B1A60EE2212020A
:40010000274B1A609922274B1A6099231B04264A13602649264A116080210905254A116080218904244A1160244A13600D22244B1A600132234B1A6023490B782E32934349
:4001400014221343DBB20B70204A117816230B43DBB213708022D2031D4B1A6010221D4B1A60E02212021C4B1A60D82212011B4B1A6002231A4A136031211A4A11601A4A89
:400180001360FFF749FF10BD1C700F40D02400005027000000600F4002600F40040001400C0001401000014000500F400400990010500F4014500F4018500F4030500F4014
:4001C0002000004000800F4001700F4000700F400800044000010440080104400803044000040440080404401804044010B5064C2378002B07D1054B002B02D0044800E0FE
:4002000000BF0123237010BD4801002000000000681A0000084B10B5002B03D00749084800E000BF07480368002B00D110BD064B002BFBD09847F9E7000000004C01002045
:40024000681A0000C00000200000000010B50D21034800F021FA00F05FFF01F0CDF810BD7422000070B582B004000D001E000023009301F080FB3100200000F015FD0190E0
:40028000042201A9200001F0E1FA201D0422694601F0DCFA04226946280001F0D7FA02B070BDC046F0B5474680B4E0B0082001F0C3FA0190042001F0BFFA0400002507E0CA
:4002C0002B014F49C91810224E4800F0B3FE01357F2DF5DD012000F003FA50AD40220021280001F0BCFA50232B800121280000F0D3F9280000F0E0F92B783820FF3002AAF4
:4003000094466044037001223F4900F093FE3F4B1A7803AB1A703E4A12785A703D4A12789A703D4A1278DA703C4A12781A713C4A12785A713B4A12789A713B4A1278DA7110
:4003400004223A49019801F081FA00262CE003AB9A5D227042469A5CA270DA5DE2705B5D23712023042221000198FFF77BFF013500E00025072DEADD013700E00027072FC3
:40038000F7DD01239C46E04401E0002398464346072BF3DDB30706D1B3000BAAD0180422019901F053FA0136072EEEDD20210BA800F072F9002416E050A800F07DF90BA941
:4003C00013A800F00BFC50A913A800F00BFC23010B49C918102250A800F02CFE0121144800F05AF901343823FF3302AA944663441B789C42E0DB60B004BC9046F0BDC046CE
:400400006C1A0000842200006C22000078F1FF0F79F1FF0F7AF1FF0F7BF1FF0F7CF1FF0F7DF1FF0F7EF1FF0F7FF1FF0F942200009C220000F0B5474680B4CEB06B46D871DC
:40044000082001F0F9F905000090042001F0F4F904003D4B1A7802AB1A703C4A12785A703B4A12789A703B4A1278DA703A4A12781A713A4A12785A71394A12789A71394A2C
:400480001278DA7104223849280001F0DFF9002631E002AB9A5D227042469A5CA270DA5DE2705B5D23712023042221000098FFF7D9FE04220021200001F0D1F9013500E0D6
:4004C0000025072DE5DD013700E00027072FF7DD01239C46E04401E0002398464346072BF3DDB30706D1B3000AAAD0180422009901F0ACF90136072EEEDD2022002102A888
:4005000001F0ADF904220021200001F0A8F908220021009801F0A3F90AA912A800F05EFB6B46D91D12A800F065FB202200210AA801F095F9F022002112A801F090F94EB05B
:4005400004BC9046F0BDC04678F1FF0F79F1FF0F7AF1FF0F7BF1FF0F7CF1FF0F7DF1FF0F7EF1FF0F7FF1FF0F94220000F0B585B0144D2C786E4610220021684601F06FF9BB
:40058000114F23016A46FB1813CB13C21B6813603078FFF74FFF1021684600F07DF82978090179181022094800F044FD2B780133DA17520E9B187F210B409B1A2B7005B060
:4005C000F0BDC046640100206C1A000084220000F0B593B062B6274800F090FD00F028FD00F00AFC244B1B79002B0AD1FFF75AFE472068440123037001221F49043100F0EF
:4006000019FD002000F06CF801AC200000F054F82078FFF70FFF1949200001F0C1F904000378802BEDD1154901A801F0B9F90700FF210E00064022000A4092190E4B0B4096
:400640009A4204DDFC390E4800F026F8D9E7E5B22C000BE0FFF78AFF46206844EB1B03700122054900F0E6FC0134E4B2A642F1DCC7E7C0464D0200006C220000A022000096
:40068000A422000010B500F0E1FB0028FBD000F0A9FCC0B210BDC04670B506000D00080000F0E8FB002403E0305D00F0E3FB0134AC42F9DB002070BDF0B583B00600FFF789
:4006C000E1FF01900700002404E03519FFF7DAFF28700134BC42F8DB019803B0F0BDC04610B588B004006846FFF7E6FF1449684601F030F9002809D0684601F035F9C1B2D0
:400700006846FFF7C9FF0F4B009310E0002C07D005210D48FFF7C0FF6846FFF7CDFF06E005210A48FFF7B8FF6846FFF7C5FF0849684601F00FF90028D5D108B010BDC04609
:40074000A822000042414400B0220000B8220000C0220000F0B583B000220CE09300CC5CC4545C1C0D5D05559C1C0D5D05550333CC5CC4540132072AF0D9082149E0274B82
:40078000CB189B00C75C01AE3770C3185D7875709C78B470DA78F27007230B400FD1204E755DAC46355D01AC6570B25CA270F25DE270CD081B4A525D65466A402270042B66
:4007C0000DD101AB1C78164A145D1C705C78145D5C709C78145D9C70DC78125DDA708A00114BCB189B00C65C01AC257875408554561CC3185F7865787D408555961C9F7810
:40080000A5787D4085550332DD78E3786B40835401313B29B3D903B0F0BDC046FFFFFF3FC4220000C4230000F8FFFF3FF0B5002611E08400A419A4001C19175DB4000C19B4
:40084000E55C7D40E5540133DBB200E00023032BEFD90136F6B2032EF8D9F0BD30B500210DE09A008218545C064D2C5D54540133DBB200E00023032BF3D90131C9B2032907
:40088000F8D930BDC4220000437842794270427A4271427B427243738378827A827083728379827B82718373C378C27BC270C27AC273C279C272C3717047C0464300C0098F
:4008C00042008018C20080185840C0B27047C046F8B54F464646C0B48046002633E0B300994643464A46D75C44464C4460787840A578E37845405D40FFF7E0FF6840784065
:4009000043464A46D05463789946A0785840FFF7D5FF68404B4658406070A3789946E0785840FFF7CBFF68404B465840A070E378994618007840FFF7C1FF45404B465D40A7
:40094000E5700136F6B2032EC9D90CBC90469946F8BDC046F0B55F4656464D464446F0B48DB0049000239846ABE043469B009B46049B5A46D55C1F005F447B781C00BB78BB
:400980001E00FB78039301952800FFF797FF0690FFF794FF0790FFF791FF824605942000FFF78CFF0500FFF789FF0890FFF786FF814602963000FFF781FF0990FFF77EFFE1
:4009C0000400FFF77BFF06000398FFF777FF0A90FFF774FF0B90FFF771FF8446069B07994B40DBB252465340D9B2059A6A40D2B24B465A40D3B24B40029A6240D2B272401D
:400A0000D2B2534003994140CAB2534004995A4653540198030052465340DAB208994D40EBB24D466B40DDB25540099B029A5340DBB27340DBB25D400B9B03994B40DBB278
:400A400062465340DBB25D407D70079A4240D2B255466A40D3B2059D2A0048464240D2B25A40099B6340DBB27340DBB214005C400B000A994B40DBB262465340DBB25C40CB
:400A8000BC70069B01994B40DBB250464340D9B22A00089C6240D2B248464240D3B24B40029A5640F6B25E400B9B0A994B40DBB260465840C3B230005840F87001239C463D
:400AC000E0444346032B00DC4FE70DB03CBC90469946A246AB46F0BD30B500240EE09A008218115D074D6918097B11550133DBB200E00023032BF2D90134E4B2032CF8D939
:400B000030BDC046C4230000437B427A4273427942724278427143708378827A827083728379827B82718373C378C279C270C27AC271C27BC272C3737047C04670B50500B8
:400B40000E000A0001000020FFF770FE01240FE02800FFF783FE2800FFF796FE2800FFF7B7FE320029002000FFF760FE0134E4B20D2CEDD92800FFF771FE2800FFF784FEDA
:400B8000320029000E20FFF751FE70BD70B505000E000A0001000E20FFF748FE0D240FE02800FFF7B1FF2800FFF796FF320029002000FFF73BFE2800FFF7CCFE013CE4B287
:400BC000002CEDD12800FFF79FFF2800FFF784FF320029000020FFF729FE70BD10B5FFF7B9FD10BD10B50B0001001800FFF7A6FF10BDC04610B50B0001001800FFF7C6FFB0
:400C000010BDC04630B500294ADD00284AD003250D40891010E043781B0204781B19D318C278120284781219D2025A401B045A400430D30AD21801390029ECDC022D12D026
:400C4000032D02D0012D1ED117E043781B0201785B18D218110413004B40827892045A40D30AD2180FE043781B0201785B18D218D3025A40530CD21805E003789A18910212
:400C80004A405308D218D00042405109501801014840410C4018410648408309C01802E0002000E0002030BD10B50A00FFF7AAFF10BDC046F0B50025002711E0BB00C65804
:400CC000F3B2FF22964308E06A008A181478A419527822700135013BDBB2002BF4D10137072FEBD9F0BDC04610B50A00002100F0B6FD10BD10B500F073FD03680C2B00D1F0
:400D0000FEE7FEE710B50300094A1068C318094A9A1AF82149008A4202DC054A136005E000F05EFD0C2303600120404210BDC046C4000020C002002070B50F4E0F4D13E0D7
:400D400029686B68AC68002202E001C901C30432A242FAD1E868002202E0002102C304328242FAD11035013E002EE9D100F03EFDFFF72EFCFEE7C046010000002828000092
:400D800010B500230AE0032B03D89A000949505800E009489900094A885001332F2BF2D9FFF782F98022D205116801230B43136010BDC04600000000F50C0000000000203A
:400DC00010B50A2000F0CAFA10BDC04610B500F0F7F810BD10B500F085F810BD10B5054A1368802109060B431360FFF7E9FFFFF7EDFF10BD0000064010B5064B1B78002B66
:400E000004D1FFF7E7FF0122024B1A70FFF7E6FF10BDC04668010020094B1A68094B1B689A420BD0074B1B680133812B00D10023054AD05CC0B2034A136000E0002070475F
:400E40003002002028020020A4010020074B1B68074A1268934203D3054A1068181A04E0034A10681B1A8133180070473002002028020020144B1A68144B1B689A4208D158
:400E8000134B1B680F221340082B02D0114B186019E00D4B1A680132802A00D100220B4B1B689A42FBD002230B490B60C0B20B49885405490A600A4A1268134203D1084A4A
:400EC00011680B43136070472C020020A00100200802064040020640800F064038020020880F064010B51E4A1E4B1A6000241E4B1C6001221D4B1A601D4B1E490B6007208F
:400F00001D4908601D490C601D490A601D4A13601D4B1C60033000F02BFA03210A2000F045FA1A490A2000F02FFA194B1C60194B1C60194B1C60194B1C600422184B1A6095
:400F4000184B1C601A68184B1A80184B1C60184B1C60184B1C70184B1C60184B1C6010BD0B00000200000640400006404800064007000080000306400403064010030640FE
:400F8000440006400002064004020640FD160000880E0640C80E0640480F0640080F0640C80F0640880F0640700100203002002028020020340200202C020020A001002082
:400FC00005490B68F0229343603A13430B60034B1A88034B1A6070471000014070010020880F064010B50A2000F0C2F9FFF72EFF002806D00A2000F0B1F9FFF70DFF04003A
:4010000007E0094B1C680422084B1A600A2000F0A5F9064B1868D82292001A600002D8239B021840204310BD40030640C00F06407047C046F0B54F464646C0B4A1B08046A1
:4010400017000E008A1880231B029A4229D8CC0BC909FF230B40994624024C44E4010020002519E0B44207D3BD4205D24246525D6946CA54013502E022786946CA540134E0
:40108000013300E000237F2BECD96946484600F061F801239C46E144BD4203D20028F1D000E00120012801D90120404221B00CBC90469946F0BDC046014B18647047C046EF
:4010C0000000002010B5040000F010FB044A1368C0218B43A4011C43146000F00BFB10BD00E400E00122014B1A60704700E100E00122014B1A60704780E100E010B504008A
:40110000FFF7F6FF2000FFF7D7FF0320FFF7DAFFFFF7E8FF10BDC046034B1868C0B27F2290431860C009704710000440024B1A68024B1A600020704708010B4074010020E0
:40114000024B1A68024B1A60002070477401002008010B40F0B5A7B00500002325932493FF2800D9E4E0002900D1E1E0802204A800F06CFB022300200021002408E09A0056
:4011800002AE9259002A02D0891810431C000133212BF4D9002903D1002803D1002602E0002600E00126002E06D0A30002AA9F58002202A95A5000E00027604B02937F2363
:4011C00003935F4B02AA1A605E495F4A1160C0461B681B0F1B07F0221206934204D1584B1B68FF2213400BE0554B1B681B0F1B07A0221206934202D0514B1B6800E0002388
:401200002593259B002B00D094E000F06FFA0190FFF78CFF2490259B002B25D14B4B0293029A2B0413430293454B02AA1A604849454A1160C0461B681B0F1B07F0221206A0
:40124000934204D13E4B1B68FF2213400BE03C4B1B681B0F1B07A0221206934202D0384B1B6800E000232593259B002B56D1002E54D08022002104A800F0F1FAA40002ABC2
:40128000E7502E4B02937F2303932D4B02AA1A602C492D4A1160C0461B681B0F1B07F0221206934204D1264B1B68FF2213400BE0234B1B681B0F1B07A0221206934202D0FC
:4012C0001F4B1B6800E000232593259B002B25D1204B0293029B2D041D430295184B02AA1A601D49184A1160C0461B681B0F1B07F0221206934204D1114B1B68FF221340E2
:401300000BE00F4B1B681B0F1B07A0221206934202D00B4B1B6800E000232593249B002B02D1FFF70DFF2490019800F0E3F901E004232593259827B0F0BDC046B6D7000018
:40134000080000400400008004000040B6D8000005000080B6D90000060000801F2318401E3B8340014A13607047C04600E100E01F2318401E3B8340014A13607047C04612
:4013800080E100E001BE704770B504000D001F2802D90020FFF7F6FF1034A40080239B059C4664442068256070BDC04670B504000E00032902D90020FFF7E4FF1F2C02D9C1
:4013C0000020FFF7DFFF03252540ED00063500F08DF9A408A400074B9C46644421680323AB4099430B003100A9401943216000F081F970BD00E400E0034A13681B041B0CC1
:4014000002490B43136070470CED00E00400FA0510B5034B1B7B584300F05EF910BDC046C8000020F0B557464E46C0B483B0040000F05CF90190E71E2D2F74D83F4B1B78A6
:40144000DBB29C4208D83E4B1B78DBB29A463D4B1B78DBB2994631E03B4B1B78DBB29C4208D83A4B1B78DBB29A46394B1B78DBB2994623E0374B1B78DBB29C4208D8364BB0
:401480001B78DBB29A46354B1B78DBB2994615E0334B1B78DBB29C4208D8324B1B78DBB29A46314B1B78DBB2994607E02F4B1B78DBB29A462E4B1B78DBB299462D4BDE5DD8
:4014C0002F2E09D92A2C07D919222B4B1A60052000F002F9192503E0274B1D683F231D40B54206D9234BDA5D234B1A60052000F0F3F81F4B9C4664442378DBB21F4A13600A
:401500001F4B52461A601F4B4A461A600520FFF77FFFB5420AD2174BDA5D174B1A60052000F0DAF802E00020FFF72CFF019800F0E1F803B00CBC91469A46F0BDC0F1FF0FD0
:40154000C1F1FF0FC2F1FF0FC3F1FF0FC4F1FF0FC5F1FF0FC6F1FF0FC7F1FF0FC8F1FF0FC9F1FF0FCAF1FF0FCBF1FF0FCCF1FF0FCDF1FF0FD42700002CFF0B4028FF0B407A
:401580001CFF0B4020FF0B40034B1868C0231B02184000D00120704700010B4010B500F0A5F8044A1368C02109020B43136000F0A1F810BD00010B4010B500F097F8084942
:4015C0000A68084B1A408024E40122430A600A6813408022120213430B6000F08BF810BD00010B40FF3FFFFF70B5050000F07EF80400FFF7C9FF002803D0FFF7DDFF01212F
:4016000000E0002108482840084A1568084B2B40184310601368012901D1FFF7BFFF200000F068F870BDC0460404040010020B40FBFBFBFF10B5244B1B685B0715D5234B01
:401640001B685B070ED5224BD969042001401F4C22688A432260DA698243DA611B69002B00D098470420FFF7BFFF174B1B685B0518D5164B1B685B0510D5154BD969802232
:40168000D2001140114802688A430260D969114A0A40DA615B69002B00D098478020C000FFF7A2FF084B1B685B030CD5074B1B685B0304D5064B9B69002B00D0984780206E
:4016C000C002FFF791FF10BD10020B40DC00002078010020FFFBFFFF0230800804D0C0460138FDD1C046C046C0467047EFF3108072B6704780F310887047C04610B5274B37
:401700001B68002B00D09847254B1B685B071DD5244B1B680133812B00D10023224A1268934205D1214B1B682022214B1A7006E01E4A1268D2B21F49CA541A4A13601E4B75
:401740001B681B07E4D104221C4B1A601C4B1B689B0721D51B4B1A681B4B1B689A4213D0194B1B680133802B00D10023174AD25CD2B217490A60144A1360164B1B680F2279
:401780001340082BE6D104E0134A136802218B4313600222114B1A6010BDC0466C010020CC0F064030020020280200204003064034020020A401002008030640C00F0640AB
:4017C0008C0F06402C020020A0010020380200204002064008020640880F0640800F0640014B18687047C046400100200E4B70B500251E000D4CE41AA410A54204D0AB00F9
:40180000F35898470135F8E700F0FCFF084B00251E00084CE41AA410A54204D0AB00F35898470135F8E770BD1028000010280000102800001828000010B5034B0100186894
:4018400000F016F810BDC04640010020002310B59A4203D0CC5CC4540133F9E710BD03008218934202D019700133FAE770470000032370B5CD1C9D43083506000C2D01D282
:401880000C2501E0002D01DBA94202D90C23336048E0300000F0E5F8234B1C681A002100002913D00B685B1B0DD40B2B02D90B60CC181EE08C4202D1636813601AE04B6873
:4018C00063600C0016E00C004968E9E7174C2368002B03D1300000F02BF820602900300000F026F8431C18D00323C41C9C43A0420DD12560300000F0B5F8200007220B30BD
:40190000231D9043C31A0ED05A42E2500BE0211A300000F00DF8431CEBD10C233000336000F0A0F8002070BD9C01002098010020002370B5064C050008002360FFF7E2F96D
:40194000431C03D12368002B00D02B6070BDC046B802002002780B78002A03D0013001319A42F7D0D01A70470023C25C0133002AFBD1581E7047030010B51C78002C0AD07B
:401980000133FAE70C781C70002C07D0002A00D15A7001330131013A541CF3D110BD0000F8B5174B06001D680F00AC6D002C1FD15020FFF741FFA8658460AB6D0460446003
:4019C0001C61DC60AB6D9C615C61AB6DDC629C62AB6D5C631C63AB6DDC639C63AB6D5C641C64AB6DDC649C64AB6D1C77AB6D5C62AA6D39003000012300F004F8F8BDC046E0
:401A000040010020F0B5041E0CD11468201E09D126E03778002F0CD00136B842F9D1002B04D02C00651C20780E00F2E71560237015E0002808D1106012E00778BE4207D071
:401A40000130002FF9D11D006B1C2E780800F4E7002E02D00021297000E0330013602000F0BD704770470000000000002A2A2A2A2A454D5054592A2A2A2A2A000000000061
:401A80000000000000000000000000000000000000000000000000000000000000000000000000000000000000000000000000000000000000000000000000000000000026
:401AC00000000000000000000000000000000000000000000000000000000000000000000000000000000000000000000000000000000000000000000000000000000000E6
:401B000000000000000000000000000000000000000000000000000000000000000000000000000000000000000000000000000000000000000000000000000000000000A5
:401B40000000000000000000000000000000000000000000000000000000000000000000000000000000000000000000000000000000000000000000000000000000000065
:401B80000000000000000000000000000000000000000000000000000000000000000000000000000000000000000000000000000000000000000000000000000000000025
:401BC00000000000000000000000000000000000000000000000000000000000000000000000000000000000000000000000000000000000000000000000000000000000E5
:401C000000000000000000000000000000000000000000000000000000000000000000000000000000000000000000000000000000000000000000000000000000000000A4
:401C40000000000000000000000000000000000000000000000000000000000000000000000000000000000000000000000000000000000000000000000000000000000064
:401C80000000000000000000000000000000000000000000000000000000000000000000000000000000000000000000000000000000000000000000000000000000000024
:401CC00000000000000000000000000000000000000000000000000000000000000000000000000000000000000000000000000000000000000000000000000000000000E4
:401D000000000000000000000000000000000000000000000000000000000000000000000000000000000000000000000000000000000000000000000000000000000000A3
:401D40000000000000000000000000000000000000000000000000000000000000000000000000000000000000000000000000000000000000000000000000000000000063
:401D80000000000000000000000000000000000000000000000000000000000000000000000000000000000000000000000000000000000000000000000000000000000023
:401DC00000000000000000000000000000000000000000000000000000000000000000000000000000000000000000000000000000000000000000000000000000000000E3
:401E000000000000000000000000000000000000000000000000000000000000000000000000000000000000000000000000000000000000000000000000000000000000A2
:401E40000000000000000000000000000000000000000000000000000000000000000000000000000000000000000000000000000000000000000000000000000000000062
:401E80000000000000000000000000000000000000000000000000000000000000000000000000000000000000000000000000000000000000000000000000000000000022
:401EC00000000000000000000000000000000000000000000000000000000000000000000000000000000000000000000000000000000000000000000000000000000000E2
:401F000000000000000000000000000000000000000000000000000000000000000000000000000000000000000000000000000000000000000000000000000000000000A1
:401F40000000000000000000000000000000000000000000000000000000000000000000000000000000000000000000000000000000000000000000000000000000000061
:401F80000000000000000000000000000000000000000000000000000000000000000000000000000000000000000000000000000000000000000000000000000000000021
:401FC00000000000000000000000000000000000000000000000000000000000000000000000000000000000000000000000000000000000000000000000000000000000E1
:4020000000000000000000000000000000000000000000000000000000000000000000000000000000000000000000000000000000000000000000000000000000000000A0
:402040000000000000000000000000000000000000000000000000000000000000000000000000000000000000000000000000000000000000000000000000000000000060
:402080000000000000000000000000000000000000000000000000000000000000000000000000000000000000000000000000000000000000000000000000000000000020
:4020C00000000000000000000000000000000000000000000000000000000000000000000000000000000000000000000000000000000000000000000000000000000000E0
:40210000000000000000000000000000000000000000000000000000000000000000000000000000000000000000000000000000000000000000000000000000000000009F
:40214000000000000000000000000000000000000000000000000000000000000000000000000000000000000000000000000000000000000000000000000000000000005F
:40218000000000000000000000000000000000000000000000000000000000000000000000000000000000000000000000000000000000000000000000000000000000001F
:4021C00000000000000000000000000000000000000000000000000000000000000000000000000000000000000000000000000000000000000000000000000000000000DF
:40220000000000000000000000000000000000000000000000000000000000000000000000000000000000000000000000000000000000000000000000000000000000009E
:4022400000000000000000000000000000000000000000000000000000000000000000000000000000000000000000000000000000000000496E20696E746572727570749A
:402280000A0000002A2A2A2A2A454D5054592A2A2A2A2A0070726F66000000004B0000002C00000042414400524541445900000048534D5F5000000048534D5F4E0000004B
:4022C000474F0000637C777BF26B6FC53001672BFED7AB76CA82C97DFA5947F0ADD4A2AF9CA472C0B7FD9326363FF7CC34A5E5F171D8311504C723C31896059A071280E271
:40230000EB27B27509832C1A1B6E5AA0523BD6B329E32F8453D100ED20FCB15B6ACBBE394A4C58CFD0EFAAFB434D338545F9027F503C9FA851A3408F929D38F5BCB6DA214E
:4023400010FFF3D2CD0C13EC5F974417C4A77E3D645D197360814FDC222A908846EEB814DE5E0BDBE0323A0A4906245CC2D3AC629195E479E7C8376D8DD54EA96C56F4EAC4
:40238000657AAE08BA78252E1CA6B4C6E8DD741F4BBD8B8A703EB5664803F60E613557B986C11D9EE1F8981169D98E949B1E87E9CE5528DF8CA1890DBFE6426841992D0F31
:4023C000B054BB168D01020408102040801B360052096AD53036A538BF40A39E81F3D7FB7CE339829B2FFF87348E4344C4DEE9CB547B9432A6C2233DEE4C950B42FAC34E3B
:40240000082EA16628D924B2765BA2496D8BD12572F8F66486689816D4A45CCC5D65B6926C704850FDEDB9DA5E154657A78D9D8490D8AB008CBCD30AF7E45805B8B3450658
:40244000D02C1E8FCA3F0F02C1AFBD0301138A6B3A9111414F67DCEA97F2CFCEF0B4E67396AC7422E7AD3585E2F937E81C75DF6E47F11A711D29C5896FB7620EAA18BE1B1E
:40248000FC563E4BC6D279209ADBC0FE78CD5AF41FDDA8338807C731B11210592780EC5F60517FA919B54A0D2DE57A9F93C99CEFA0E03B4DAE2AF5B0C8EBBB3C83539961BF
:4024C000172B047EBA77D626E169146355210C7D00300F40000400400F400004800F817A823804330501060C0A0814331604180A1A342403261428402A1530103260330191
:40250000340F38083A203E013F0440264103450C460B470E481549FF4AFF4BFF4EF04F44500C54015604580459045A045B045F0166C06A406B028110826384BC8508864368
:4025400088FF89388C088D048F80909F926093039403957F98E3993C9A1C9B429C109F04A002A120A404A547A738A81CAC01AD3CAF41B05CB180B23CB41FB53FB680B7400C
:40258000B980BA22BB28BE40D602D713D804D904DB04DF010004030804280501060209080B140D020E26103814401601172818041A501B081C411D261E041F02220424283F
:4025C000262827822D012E042F0235013628378039083E2A3F804004410848285080510458105A495C0163406D516E026F10762A77288740C0F6C2F6C4F6CAD0CCF0CEF282
:40260000D006D204D68FD80102030308060308030D010E030F02102112181304141316641708180319031C421D021E181F01230424F028F029032C80308031033270330438
:4026400034033508360C3E403F14402441064203440145C047E0482249FF4AFF4BFF4C624DA04EF04F41500C54185604580459045A045B045F016640670269106A306B102F
:402680006D106E106F1284108531860C874689318B0E8C10940996109713996C9B039E039F08A014A180A41CA602A80CAA11AB4CB130B34AB50FB61FB780B902BB28BF413F
:4026C000C005C540C9FFCA07CBFFCC40CD20CEF0CF05D008D804D904DA04DF01E040E1A8E240E320008404480501060408080A110C400E2A0F80108013141540162017107E
:402700001A011B801D931E202252231425102601272028082B802D102E223008329034403504371A38043B103F8245A24604470848404A8E4E084F025008560259205B20D4
:402740005D02652066806780811082C1834087408D12904C91509210971499049B129C409D019E01A080A120A208A408A610A740AD04AE01C0F5C2F5C4EECAA5CCFECE964F
:40278000D0F0D228D680D8B00E086E08712077028702C280DA80DC60E6400E406010801082408520A520C220D840E020E210E6801001110103000F4059300F403A310F4091
:4027C0006E320F4052330F4009400F400B410F4002600F40030405060708090A0B0C0E0F101112131415161718191B1C1D1E1F2021222325262728292A2B2E2F30313233AB
:4028000034354300F8B5C046F8BC08BC9E46704715020000810D0000F8B5C046F8BC08BC9E467047ED01000038280000C0000020880000007801000000000000C0020020AA
:402840000100000000004C1D983A00000F000000C0E1E400040404000000000000000000000000000000000000000000000000000000000000000000022800000000000052
:402880000000000000000000000000000000000000000000000000000000000000000000000000000000000000000000000000000000000000000000E00000200000000018
:4028C00000000000000000000000000000000000000000000000000000000000000000000000000000000000000000000000000000000000000000000000000000000000D8
:402900000000000000000000000000000000000000000000000000000000000000000000000000000000000000000000000000000000000000000000000000000000000097
:402940000000000000000000000000000000000000000000000000000000000000000000000000000000000000000000000000000000000000000000000000000000000057
:402980000000000000000000000000000000000000000000000000000000000000000000000000000000000000000000000000000000000000000000000000000000000017
:0200000490303A
:0200000074A2E8
:0200000490402A
:200000000000000000000000000000000000000000000000000000000000000000000000E0
:0200000490501A
:0C000000000204C81193110004D38635DF
:0200000490600A
:0100000002FD
:00000001FF